{"abi":[{"type":"function","name":"computeAddress","inputs":[{"name":"salt","type":"bytes32","internalType":"bytes32"},{"name":"bytecodeHash","type":"bytes32","internalType":"bytes32"}],"outputs":[{"name":"addr","type":"address","internalType":"address"}],"stateMutability":"view"},{"type":"function","name":"deploy","inputs":[{"name":"amount","type":"uint256","internalType":"uint256"},{"name":"salt","type":"bytes32","internalType":"bytes32"},{"name":"bytecode","type":"bytes","internalType":"bytes"}],"outputs":[{"name":"addr","type":"address","internalType":"address"}],"stateMutability":"payable"}],"bytecode":{"object":"0x608060405234801561001057600080fd5b506102b1806100206000396000f3fe6080604052600436106100295760003560e01c8063481286e61461002e57806366cfa0571461007a575b600080fd5b34801561003a57600080fd5b5061005e6004803603604081101561005157600080fd5b508035906020013561012c565b604080516001600160a01b039092168252519081900360200190f35b61005e6004803603606081101561009057600080fd5b8135916020810135918101906060810160408201356401000000008111156100b757600080fd5b8201836020820111156100c957600080fd5b803590602001918460018302840111640100000000831117156100eb57600080fd5b91908080601f016020809104026020016040519081016040528093929190818152602001838380828437600092019190915250929550610157945050505050565b604080519081018290526020810183905230808252600091600b0160ff815360559020949350505050565b6000833410156101985760405162461bcd60e51b81526004018080602001828103825260238152602001806102596023913960400191505060405180910390fd5b81516101eb576040805162461bcd60e51b815260206004820152601c60248201527f466c617368626f74466163746f7279456d70747942797465636f646500000000604482015290519081900360640190fd5b8282516020840186f590506001600160a01b038116610251576040805162461bcd60e51b815260206004820152601f60248201527f466c617368626f74466163746f72794661696c65644465706c6f796d656e7400604482015290519081900360640190fd5b939250505056fe466c617368626f74466163746f7279496e73756666696369656e7442616c616e63653ba2646970667358221220c49e94aaa789eb4337970fcc90a559136f1de9f8bb2c7958d4ff62e908e4180c64736f6c63430007060033","linkReferences":{}},"methodIdentifiers":{"computeAddress(bytes32,bytes32)":"481286e6","deploy(uint256,bytes32,bytes)":"66cfa057"},"id":23}