{"abi":[{"type":"function","name":"getAmountsOut","inputs":[{"name":"amountIn","type":"uint256","internalType":"uint256"},{"name":"path","type":"address[]","internalType":"address[]"}],"outputs":[{"name":"amounts","type":"uint256[]","internalType":"uint256[]"}],"stateMutability":"view"},{"type":"function","name":"mockedAmountsOut","inputs":[{"name":"","type":"bytes32","internalType":"bytes32"}],"outputs":[{"name":"","type":"uint256","internalType":"uint256"}],"stateMutability":"view"},{"type":"function","name":"mockedAmountsOutMultiple","inputs":[{"name":"","type":"bytes32","internalType":"bytes32"},{"name":"","type":"uint256","internalType":"uint256"}],"outputs":[{"name":"","type":"uint256","internalType":"uint256"}],"stateMutability":"view"},{"type":"function","name":"setMockedAmountsOut","inputs":[{"name":"tokenIn","type":"address","internalType":"address"},{"name":"tokenOut","type":"address","internalType":"address"},{"name":"amountIn","type":"uint256","internalType":"uint256"},{"name":"mockedAmountOut","type":"uint256","internalType":"uint256"}],"outputs":[],"stateMutability":"nonpayable"},{"type":"function","name":"setMockedAmountsOutMultiple","inputs":[{"name":"path","type":"address[]","internalType":"address[]"},{"name":"amounts","type":"uint256[]","internalType":"uint256[]"}],"outputs":[],"stateMutability":"nonpayable"},{"type":"function","name":"swapExactTokensForTokens","inputs":[{"name":"amountIn","type":"uint256","internalType":"uint256"},{"name":"amountOutMin","type":"uint256","internalType":"uint256"},{"name":"path","type":"address[]","internalType":"address[]"},{"name":"to","type":"address","internalType":"address"},{"name":"deadline","type":"uint256","internalType":"uint256"}],"outputs":[{"name":"amounts","type":"uint256[]","internalType":"uint256[]"}],"stateMutability":"nonpayable"}],"bytecode":{"object":"0x608060405234801561001057600080fd5b506105e2806100206000396000f3fe608060405234801561001057600080fd5b50600436106100625760003560e01c806338ed1739146100675780633e20ef7f146101405780639d0e8cb91461016f578063b03301541461022f578063d06ca61f1461026b578063f138ce89146102e0575b600080fd5b6100f0600480360360a081101561007d57600080fd5b813591602081013591810190606081016040820135600160201b8111156100a357600080fd5b8201836020820111156100b557600080fd5b803590602001918460208302840111600160201b831117156100d657600080fd5b91935091506001600160a01b038135169060200135610303565b60408051602080825283518183015283519192839290830191858101910280838360005b8381101561012c578181015183820152602001610114565b505050509050019250505060405180910390f35b61015d6004803603602081101561015657600080fd5b5035610352565b60408051918252519081900360200190f35b61022d6004803603604081101561018557600080fd5b810190602081018135600160201b81111561019f57600080fd5b8201836020820111156101b157600080fd5b803590602001918460208302840111600160201b831117156101d257600080fd5b919390929091602081019035600160201b8111156101ef57600080fd5b82018360208201111561020157600080fd5b803590602001918460208302840111600160201b8311171561022257600080fd5b509092509050610364565b005b61022d6004803603608081101561024557600080fd5b506001600160a01b038135811691602081013590911690604081013590606001356103c5565b6100f06004803603604081101561028157600080fd5b81359190810190604081016020820135600160201b8111156102a257600080fd5b8201836020820111156102b457600080fd5b803590602001918460208302840111600160201b831117156102d557600080fd5b509092509050610425565b61015d600480360360408110156102f657600080fd5b508035906020013561051b565b60608367ffffffffffffffff8111801561031c57600080fd5b50604051908082528060200260200182016040528015610346578160200160208202803683370190505b50979650505050505050565b60006020819052908152604090205481565b6000848460405160200180838360200280828437808301925050509250505060405160208183030381529060405280519060200120905082826001600084815260200190815260200160002091906103bd92919061054c565b505050505050565b604080516bffffffffffffffffffffffff19606096871b81166020808401919091529590961b9095166034860152604880860193909352805180860390930183526068909401845281519183019190912060009081529182905291902055565b606060008383604051602001808383602002808284376040805191909301818103601f1901825283528051602091820120600081815260019092529290205491955050151592506104b8915050576040805162461bcd60e51b8152602060048201526015602482015274135bd8dace88185b5bdd5b9d1cc81b9bdd081cd95d605a1b604482015290519081900360640190fd5b6000818152600160209081526040918290208054835181840281018401909452808452909183018282801561050c57602002820191906000526020600020905b8154815260200190600101908083116104f8575b50505050509150509392505050565b6001602052816000526040600020818154811061053757600080fd5b90600052602060002001600091509150505481565b828054828255906000526020600020908101928215610587579160200282015b8281111561058757823582559160200191906001019061056c565b50610593929150610597565b5090565b5b80821115610593576000815560010161059856fea26469706673582212208c4c6150880bb948600ac1f3503850ba24559f0f0dc21f4d460b07daebcab52064736f6c63430007060033","linkReferences":{}},"methodIdentifiers":{"getAmountsOut(uint256,address[])":"d06ca61f","mockedAmountsOut(bytes32)":"3e20ef7f","mockedAmountsOutMultiple(bytes32,uint256)":"f138ce89","setMockedAmountsOut(address,address,uint256,uint256)":"b0330154","setMockedAmountsOutMultiple(address[],uint256[])":"9d0e8cb9","swapExactTokensForTokens(uint256,uint256,address[],address,uint256)":"38ed1739"},"id":39}