{"abi":[{"type":"function","name":"allPairs","inputs":[{"name":"","type":"uint256","internalType":"uint256"}],"outputs":[{"name":"","type":"address","internalType":"address"}],"stateMutability":"view"},{"type":"function","name":"createPair","inputs":[{"name":"tokenA","type":"address","internalType":"address"},{"name":"tokenB","type":"address","internalType":"address"}],"outputs":[{"name":"pair","type":"address","internalType":"address"}],"stateMutability":"nonpayable"},{"type":"function","name":"getPair","inputs":[{"name":"","type":"address","internalType":"address"},{"name":"","type":"address","internalType":"address"}],"outputs":[{"name":"","type":"address","internalType":"address"}],"stateMutability":"view"},{"type":"event","name":"PairCreated","inputs":[{"name":"token0","type":"address","indexed":true,"internalType":"address"},{"name":"token1","type":"address","indexed":true,"internalType":"address"},{"name":"pair","type":"address","indexed":false,"internalType":"address"},{"name":"","type":"uint256","indexed":false,"internalType":"uint256"}],"anonymous":false}],"bytecode":{"object":"0x608060405234801561001057600080fd5b506103ce806100206000396000f3fe608060405234801561001057600080fd5b50600436106100415760003560e01c80631e3dd18b14610046578063c9c653961461007f578063e6a43905146100ad575b600080fd5b6100636004803603602081101561005c57600080fd5b50356100db565b604080516001600160a01b039092168252519081900360200190f35b6100636004803603604081101561009557600080fd5b506001600160a01b0381358116916020013516610105565b610063600480360360408110156100c357600080fd5b506001600160a01b0381358116916020013516610375565b600181815481106100eb57600080fd5b6000918252602090912001546001600160a01b0316905081565b6000816001600160a01b0316836001600160a01b0316141561016e576040805162461bcd60e51b815260206004820181905260248201527f4d6f636b466163746f72793a204944454e544943414c5f414444524553534553604482015290519081900360640190fd5b6001600160a01b0383161580159061018e57506001600160a01b03821615155b6101df576040805162461bcd60e51b815260206004820152601960248201527f4d6f636b466163746f72793a205a45524f5f4144445245535300000000000000604482015290519081900360640190fd5b6001600160a01b0383811660009081526020818152604080832086851684529091529020541615610257576040805162461bcd60e51b815260206004820152601860248201527f4d6f636b466163746f72793a20504149525f4558495354530000000000000000604482015290519081900360640190fd5b5060408051606084811b6bffffffffffffffffffffffff199081166020808501919091529185901b1660348301524260488084019190915283518084039091018152606883018085528151918301919091206001600160a01b038088166000818152808652878120838a1680835290875288822080546001600160a01b03199081169587169586179091558288528983208484529097528882208054881685179055600180548082018255928190527fb10e2d527612073b26eecdfd717e6a320cf44b4afac2b0732d9fcbe2b7fa0cf690920180549097168417909655549190935260888501529351919290917f0d3648bd0f6ba80134a33ba9275ac585d9d315f0ad8355cddefde31afa28d0e99160a8908290030190a392915050565b60006020818152928152604080822090935290815220546001600160a01b03168156fea2646970667358221220b20d907b70815833ef0bb2301d731b27d08117e4ee58ae470974697bb2a5be6564736f6c63430007060033","linkReferences":{}},"methodIdentifiers":{"allPairs(uint256)":"1e3dd18b","createPair(address,address)":"c9c65396","getPair(address,address)":"e6a43905"},"id":37}