{"abi":[{"type":"constructor","inputs":[{"name":"_token0","type":"address","internalType":"address"},{"name":"_token1","type":"address","internalType":"address"}],"stateMutability":"nonpayable"},{"type":"function","name":"getReserves","inputs":[],"outputs":[{"name":"_reserve0","type":"uint112","internalType":"uint112"},{"name":"_reserve1","type":"uint112","internalType":"uint112"},{"name":"_blockTimestampLast","type":"uint32","internalType":"uint32"}],"stateMutability":"view"},{"type":"function","name":"setReserves","inputs":[{"name":"_reserve0","type":"uint112","internalType":"uint112"},{"name":"_reserve1","type":"uint112","internalType":"uint112"}],"outputs":[],"stateMutability":"nonpayable"},{"type":"function","name":"swap","inputs":[{"name":"amount0Out","type":"uint256","internalType":"uint256"},{"name":"amount1Out","type":"uint256","internalType":"uint256"},{"name":"to","type":"address","internalType":"address"},{"name":"data","type":"bytes","internalType":"bytes"}],"outputs":[],"stateMutability":"nonpayable"},{"type":"function","name":"token0","inputs":[],"outputs":[{"name":"","type":"address","internalType":"address"}],"stateMutability":"view"},{"type":"function","name":"token1","inputs":[],"outputs":[{"name":"","type":"address","internalType":"address"}],"stateMutability":"view"}],"bytecode":{"object":"0x608060405234801561001057600080fd5b506040516103263803806103268339818101604052604081101561003357600080fd5b508051602090910151600080546001600160a01b039384166001600160a01b031991821617909155600180549390921692169190911790556102ac8061007a6000396000f3fe608060405234801561001057600080fd5b50600436106100575760003560e01c8063022c0d9f1461005c5780630902f1ac146100ea5780630dfe16811461012257806375ea5f2e14610146578063d21220a714610174575b600080fd5b6100e86004803603608081101561007257600080fd5b8135916020810135916001600160a01b0360408301351691908101906080810160608201356401000000008111156100a957600080fd5b8201836020820111156100bb57600080fd5b803590602001918460018302840111640100000000831117156100dd57600080fd5b50909250905061017c565b005b6100f26101cd565b604080516001600160701b03948516815292909316602083015263ffffffff168183015290519081900360600190f35b61012a6101eb565b604080516001600160a01b039092168252519081900360200190f35b6100e86004803603604081101561015c57600080fd5b506001600160701b03813581169160200135166101fa565b61012a610243565b600085118061018b5750600084115b6101c65760405162461bcd60e51b81526004018080602001828103825260248152602001806102536024913960400191505060405180910390fd5b5050505050565b6002546001600160701b0380821692600160701b9092041690600090565b6000546001600160a01b031681565b600280546001600160701b03928316600160701b026dffffffffffffffffffffffffffff60701b19949093166dffffffffffffffffffffffffffff199091161792909216179055565b6001546001600160a01b03168156fe4d6f636b506169723a20494e53554646494349454e545f4f55545055545f414d4f554e54a2646970667358221220b894e8d475e8f3f282cecd991a442ab48110c09c86d6321bc9f89ba8097a08be64736f6c63430007060033","linkReferences":{}},"methodIdentifiers":{"getReserves()":"0902f1ac","setReserves(uint112,uint112)":"75ea5f2e","swap(uint256,uint256,address,bytes)":"022c0d9f","token0()":"0dfe1681","token1()":"d21220a7"},"id":38}