{"abi":[{"type":"constructor","inputs":[{"name":"_owner","type":"address","internalType":"address"}],"stateMutability":"nonpayable"},{"type":"receive","stateMutability":"payable"},{"type":"function","name":"BiswapCall","inputs":[{"name":"_amount0","type":"uint256","internalType":"uint256"},{"name":"_amount1","type":"uint256","internalType":"uint256"},{"name":"_data","type":"bytes","internalType":"bytes"}],"outputs":[],"stateMutability":"nonpayable"},{"type":"function","name":"cafeCall","inputs":[{"name":"_amount0","type":"uint256","internalType":"uint256"},{"name":"_amount1","type":"uint256","internalType":"uint256"},{"name":"_data","type":"bytes","internalType":"bytes"}],"outputs":[],"stateMutability":"nonpayable"},{"type":"function","name":"checkProfitable","inputs":[{"name":"_tokenPay","type":"address","internalType":"address"},{"name":"_tokenSwap","type":"address","internalType":"address"},{"name":"_amountTokenPay","type":"uint256","internalType":"uint256"},{"name":"_sourceRouter","type":"address","internalType":"address"},{"name":"_targetRouter","type":"address","internalType":"address"}],"outputs":[{"name":"","type":"int256","internalType":"int256"},{"name":"","type":"uint256","internalType":"uint256"}],"stateMutability":"view"},{"type":"function","name":"executeArbitrage","inputs":[{"name":"_maxBlockNumber","type":"uint256","internalType":"uint256"},{"name":"_tokenPay","type":"address","internalType":"address"},{"name":"_tokenSwap","type":"address","internalType":"address"},{"name":"_amountTokenPay","type":"uint256","internalType":"uint256"},{"name":"_sourceRouter","type":"address","internalType":"address"},{"name":"_targetRouter","type":"address","internalType":"address"},{"name":"_sourceFactory","type":"address","internalType":"address"}],"outputs":[],"stateMutability":"nonpayable"},{"type":"function","name":"jetswapCall","inputs":[{"name":"_amount0","type":"uint256","internalType":"uint256"},{"name":"_amount1","type":"uint256","internalType":"uint256"},{"name":"_data","type":"bytes","internalType":"bytes"}],"outputs":[],"stateMutability":"nonpayable"},{"type":"function","name":"owner","inputs":[],"outputs":[{"name":"","type":"address","internalType":"address"}],"stateMutability":"view"},{"type":"function","name":"pancakeCall","inputs":[{"name":"_amount0","type":"uint256","internalType":"uint256"},{"name":"_amount1","type":"uint256","internalType":"uint256"},{"name":"_data","type":"bytes","internalType":"bytes"}],"outputs":[],"stateMutability":"nonpayable"},{"type":"function","name":"pantherCall","inputs":[{"name":"_amount0","type":"uint256","internalType":"uint256"},{"name":"_amount1","type":"uint256","internalType":"uint256"},{"name":"_data","type":"bytes","internalType":"bytes"}],"outputs":[],"stateMutability":"nonpayable"},{"type":"function","name":"swapV2Call","inputs":[{"name":"_amount0","type":"uint256","internalType":"uint256"},{"name":"_amount1","type":"uint256","internalType":"uint256"},{"name":"_data","type":"bytes","internalType":"bytes"}],"outputs":[],"stateMutability":"nonpayable"},{"type":"function","name":"uniswapV2Call","inputs":[{"name":"_amount0","type":"uint256","internalType":"uint256"},{"name":"_amount1","type":"uint256","internalType":"uint256"},{"name":"_data","type":"bytes","internalType":"bytes"}],"outputs":[],"stateMutability":"nonpayable"},{"type":"function","name":"wardenCall","inputs":[{"name":"_amount0","type":"uint256","internalType":"uint256"},{"name":"_amount1","type":"uint256","internalType":"uint256"},{"name":"_data","type":"bytes","internalType":"bytes"}],"outputs":[],"stateMutability":"nonpayable"},{"type":"function","name":"waultSwapCall","inputs":[{"name":"_amount0","type":"uint256","internalType":"uint256"},{"name":"_amount1","type":"uint256","internalType":"uint256"},{"name":"_data","type":"bytes","internalType":"bytes"}],"outputs":[],"stateMutability":"nonpayable"},{"type":"event","name":"FlashSwapSuccess","inputs":[{"name":"fromToken","type":"address","indexed":true,"internalType":"address"},{"name":"toToken","type":"address","indexed":true,"internalType":"address"},{"name":"inAmount","type":"uint256","indexed":false,"internalType":"uint256"}],"anonymous":false}],"bytecode":{"object":"0x608060405234801561001057600080fd5b506040516114c73803806114c78339818101604052602081101561003357600080fd5b5051600080546001600160a01b039092166001600160a01b0319909216919091179055611462806100656000396000f3fe6080604052600436106100ab5760003560e01c80638da5cb5b116100645780638da5cb5b1461020b578063915e676d146100b757806392a5cd2d146100b7578063c123cb57146100b7578063f3987bdf146100b7578063f48010a1146100b7576100b2565b806331174fd3146100b757806339df8a0e146100b757806345e3b7261461014057806365519113146100b75780636979ee23146100b75780638c60b0ec146101ac576100b2565b366100b257005b600080fd5b3480156100c357600080fd5b5061013e600480360360608110156100da57600080fd5b813591602081013591810190606081016040820135600160201b81111561010057600080fd5b82018360208201111561011257600080fd5b803590602001918460018302840111600160201b8311171561013357600080fd5b50909250905061023c565b005b34801561014c57600080fd5b50610193600480360360a081101561016357600080fd5b506001600160a01b0381358116916020810135821691604082013591606081013582169160809091013516610251565b6040805192835260208301919091528051918290030190f35b3480156101b857600080fd5b5061013e600480360360e08110156101cf57600080fd5b508035906001600160a01b0360208201358116916040810135821691606082013591608081013582169160a082013581169160c0013516610636565b34801561021757600080fd5b50610220610b9f565b604080516001600160a01b039092168252519081900360200190f35b3361024a8186868686610bae565b5050505050565b60408051600280825260608201835260009283928392909160208301908036833750506040805160028082526060820183529394506000939092509060208301908036833701905050905088816001815181106102aa57fe5b60200260200101906001600160a01b031690816001600160a01b0316815250826000815181106102d657fe5b60200260200101906001600160a01b031690816001600160a01b031681525050878160008151811061030457fe5b60200260200101906001600160a01b031690816001600160a01b03168152508260018151811061033057fe5b60200260200101906001600160a01b031690816001600160a01b0316815250506000866001600160a01b031663d06ca61f89856040518363ffffffff1660e01b81526004018083815260200180602001828103825283818151815260200191508051906020019060200280838360005b838110156103b85781810151838201526020016103a0565b50505050905001935050505060006040518083038186803b1580156103dc57600080fd5b505afa1580156103f0573d6000803e3d6000fd5b505050506040513d6000823e601f3d908101601f19168201604052602081101561041957600080fd5b8101908080516040519392919084600160201b82111561043857600080fd5b90830190602082018581111561044d57600080fd5b82518660208202830111600160201b8211171561046957600080fd5b82525081516020918201928201910280838360005b8381101561049657818101518382015260200161047e565b505050509050016040525050506001815181106104af57fe5b602002602001015190506000866001600160a01b031663d06ca61f83856040518363ffffffff1660e01b81526004018083815260200180602001828103825283818151815260200191508051906020019060200280838360005b83811015610521578181015183820152602001610509565b50505050905001935050505060006040518083038186803b15801561054557600080fd5b505afa158015610559573d6000803e3d6000fd5b505050506040513d6000823e601f3d908101601f19168201604052602081101561058257600080fd5b8101908080516040519392919084600160201b8211156105a157600080fd5b9083019060208201858111156105b657600080fd5b82518660208202830111600160201b821117156105d257600080fd5b82525081516020918201928201910280838360005b838110156105ff5781810151838201526020016105e7565b5050505090500160405250505060018151811061061857fe5b6020908102919091010151989098039a909950975050505050505050565b864311156040518060400160405280600c81526020016b4f7574206f6620626c6f636b60a01b815250906106e85760405162461bcd60e51b81526004018080602001828103825283818151815260200191508051906020019080838360005b838110156106ad578181015183820152602001610695565b50505050905090810190601f1680156106da5780820380516001836020036101000a031916815260200191505b509250505060405180910390fd5b506000806106f98888888888610251565b915091506000821360405180604001604052806009815260200168139bc81c1c9bd99a5d60ba1b8152509061076f5760405162461bcd60e51b81526020600482018181528351602484015283519092839260449091019190850190808383600083156106ad578181015183820152602001610695565b506000836001600160a01b031663e6a439058a8a6040518363ffffffff1660e01b815260040180836001600160a01b03168152602001826001600160a01b031681526020019250505060206040518083038186803b1580156107d057600080fd5b505afa1580156107e4573d6000803e3d6000fd5b505050506040513d60208110156107fa57600080fd5b5051604080518082019091526014815273496e76616c69642070616972206164647265737360601b60208201529091506001600160a01b03821661087f5760405162461bcd60e51b81526020600482018181528351602484015283519092839260449091019190850190808383600083156106ad578181015183820152602001610695565b506000816001600160a01b0316630dfe16816040518163ffffffff1660e01b815260040160206040518083038186803b1580156108bb57600080fd5b505afa1580156108cf573d6000803e3d6000fd5b505050506040513d60208110156108e557600080fd5b50516040805163d21220a760e01b815290519192506000916001600160a01b0385169163d21220a7916004808301926020929190829003018186803b15801561092d57600080fd5b505afa158015610941573d6000803e3d6000fd5b505050506040513d602081101561095757600080fd5b505190506001600160a01b0382161580159061097b57506001600160a01b03811615155b6040518060400160405280601281526020017124b73b30b634b2103830b4b9103a37b5b2b760711b815250906109f25760405162461bcd60e51b81526020600482018181528351602484015283519092839260449091019190850190808383600083156106ad578181015183820152602001610695565b50826001600160a01b031663022c0d9f836001600160a01b03168c6001600160a01b031614610a22576000610a24565b855b836001600160a01b03168d6001600160a01b031614610a44576000610a46565b865b308c8c60405160200180836001600160a01b03168152602001826001600160a01b03168152602001925050506040516020818303038152906040526040518563ffffffff1660e01b815260040180858152602001848152602001836001600160a01b0316815260200180602001828103825283818151815260200191508051906020019080838360005b83811015610ae8578181015183820152602001610ad0565b50505050905090810190601f168015610b155780820380516001836020036101000a031916815260200191505b5095505050505050600060405180830381600087803b158015610b3757600080fd5b505af1158015610b4b573d6000803e3d6000fd5b5050604080518c815290516001600160a01b03808f1694508f1692507fe525910dd8ecb1c36ab73bcb2113de20af43571de0bcb98af6312d76e68a0ea89181900360200190a3505050505050505050505050565b6000546001600160a01b031681565b60005460408051808201909152600e81526d24b73b30b634b21039b2b73232b960911b6020820152906001600160a01b03878116911614610c305760405162461bcd60e51b81526020600482018181528351602484015283519092839260449091019190850190808383600083156106ad578181015183820152602001610695565b5060008415610c3f5784610c41565b835b905060003390506000816001600160a01b0316630dfe16816040518163ffffffff1660e01b815260040160206040518083038186803b158015610c8357600080fd5b505afa158015610c97573d6000803e3d6000fd5b505050506040513d6020811015610cad57600080fd5b50516040805163d21220a760e01b815290519192506000916001600160a01b0385169163d21220a7916004808301926020929190829003018186803b158015610cf557600080fd5b505afa158015610d09573d6000803e3d6000fd5b505050506040513d6020811015610d1f57600080fd5b5051604080516002808252606082018352929350600092909160208301908036833750506040805160028082526060820183529394506000939092509060208301908036833701905050905060008a15610d795784610d7b565b835b905060008b15610d8b5784610d8d565b855b90508183600181518110610d9d57fe5b60200260200101906001600160a01b031690816001600160a01b031681525084600081518110610dc957fe5b60200260200101906001600160a01b031690816001600160a01b0316815250508083600081518110610df757fe5b60200260200101906001600160a01b031690816001600160a01b031681525084600181518110610e2357fe5b60200260200101906001600160a01b031690816001600160a01b0316815250506000808b8b6040811015610e5657600080fd5b506001600160a01b038135811693506020909101351690508115801590610e8557506001600160a01b03811615155b6040518060400160405280601a81526020017f456d70747920736f757263652f74617267657420726f7574657200000000000081525090610f075760405162461bcd60e51b81526020600482018181528351602484015283519092839260449091019190850190808383600083156106ad578181015183820152602001610695565b506040805163095ea7b360e01b81526001600160a01b038381166004830152602482018d90529151869283169163095ea7b39160448083019260209291908290030181600087803b158015610f5b57600080fd5b505af1158015610f6f573d6000803e3d6000fd5b505050506040513d6020811015610f8557600080fd5b8101908080519060200190929190505050506000836001600160a01b0316631f00ca748d896040518363ffffffff1660e01b81526004018083815260200180602001828103825283818151815260200191508051906020019060200280838360005b83811015610fff578181015183820152602001610fe7565b50505050905001935050505060006040518083038186803b15801561102357600080fd5b505afa158015611037573d6000803e3d6000fd5b505050506040513d6000823e601f3d908101601f19168201604052602081101561106057600080fd5b8101908080516040519392919084600160201b82111561107f57600080fd5b90830190602082018581111561109457600080fd5b82518660208202830111600160201b821117156110b057600080fd5b82525081516020918201928201910280838360005b838110156110dd5781810151838201526020016110c5565b505050509050016040525050506000815181106110f657fe5b602002602001015190506000836001600160a01b03166338ed17398e848c3042603c016040518663ffffffff1660e01b81526004018086815260200185815260200180602001846001600160a01b03168152602001838152602001828103825285818151815260200191508051906020019060200280838360005b83811015611189578181015183820152602001611171565b505050509050019650505050505050600060405180830381600087803b1580156111b257600080fd5b505af11580156111c6573d6000803e3d6000fd5b505050506040513d6000823e601f3d908101601f1916820160405260208110156111ef57600080fd5b8101908080516040519392919084600160201b82111561120e57600080fd5b90830190602082018581111561122357600080fd5b82518660208202830111600160201b8211171561123f57600080fd5b82525081516020918201928201910280838360005b8381101561126c578181015183820152602001611254565b5050505090500160405250505060018151811061128557fe5b602002602001015190508181116040518060400160405280601a81526020017f4e6f7420656e6f75676820726563656976656420616d6f756e74000000000000815250906113145760405162461bcd60e51b81526020600482018181528351602484015283519092839260449091019190850190808383600083156106ad578181015183820152602001610695565b506040805163a9059cbb60e01b815233600482015260248101849052905187916001600160a01b0383169163a9059cbb916044808201926020929091908290030181600087803b15801561136757600080fd5b505af115801561137b573d6000803e3d6000fd5b505050506040513d602081101561139157600080fd5b5050600080546040805163a9059cbb60e01b81526001600160a01b039283166004820152868603602482015290519184169263a9059cbb926044808401936020939083900390910190829087803b1580156113eb57600080fd5b505af11580156113ff573d6000803e3d6000fd5b505050506040513d602081101561141557600080fd5b50505050505050505050505050505050505050505056fea2646970667358221220e410cdf50a7315f6fbc4f5bde39a9c3fde5df2d0b530c126360a2d5e1cae1e1964736f6c63430007060033","linkReferences":{}},"methodIdentifiers":{"BiswapCall(uint256,uint256,bytes)":"6979ee23","cafeCall(uint256,uint256,bytes)":"31174fd3","checkProfitable(address,address,uint256,address,address)":"45e3b726","executeArbitrage(uint256,address,address,uint256,address,address,address)":"8c60b0ec","jetswapCall(uint256,uint256,bytes)":"92a5cd2d","owner()":"8da5cb5b","pancakeCall(uint256,uint256,bytes)":"f48010a1","pantherCall(uint256,uint256,bytes)":"f3987bdf","swapV2Call(uint256,uint256,bytes)":"65519113","uniswapV2Call(uint256,uint256,bytes)":"c123cb57","wardenCall(uint256,uint256,bytes)":"915e676d","waultSwapCall(uint256,uint256,bytes)":"39df8a0e"},"id":22}