{
  "_format": "hh-sol-artifact-1",
  "contractName": "Flashloanbot",
  "sourceName": "contracts/Flashloanbot.sol",
  "abi": [
    {
      "inputs": [
        {
          "internalType": "address",
          "name": "_flashloanProvider",
          "type": "address"
        }
      ],
      "stateMutability": "nonpayable",
      "type": "constructor"
    },
    {
      "anonymous": false,
      "inputs": [
        {
          "indexed": true,
          "internalType": "address",
          "name": "previousOwner",
          "type": "address"
        },
        {
          "indexed": true,
          "internalType": "address",
          "name": "newOwner",
          "type": "address"
        }
      ],
      "name": "OwnershipTransferred",
      "type": "event"
    },
    {
      "anonymous": false,
      "inputs": [
        {
          "indexed": false,
          "internalType": "uint256",
          "name": "amountBefore",
          "type": "uint256"
        },
        {
          "indexed": false,
          "internalType": "uint256",
          "name": "amountAfter",
          "type": "uint256"
        }
      ],
      "name": "executeSuccess",
      "type": "event"
    },
    {
      "anonymous": false,
      "inputs": [
        {
          "indexed": false,
          "internalType": "address",
          "name": "token",
          "type": "address"
        },
        {
          "indexed": false,
          "internalType": "uint256",
          "name": "amount",
          "type": "uint256"
        }
      ],
      "name": "withdrawSuccess",
      "type": "event"
    },
    {
      "inputs": [
        {
          "internalType": "address",
          "name": "_borrowToken",
          "type": "address"
        },
        {
          "internalType": "address",
          "name": "_swapToken",
          "type": "address"
        },
        {
          "internalType": "uint256",
          "name": "_amount",
          "type": "uint256"
        },
        {
          "internalType": "address",
          "name": "_router",
          "type": "address"
        },
        {
          "internalType": "bytes",
          "name": "userData",
          "type": "bytes"
        }
      ],
      "name": "execute",
      "outputs": [],
      "stateMutability": "nonpayable",
      "type": "function"
    },
    {
      "inputs": [],
      "name": "flashloanProvider",
      "outputs": [
        {
          "internalType": "address",
          "name": "",
          "type": "address"
        }
      ],
      "stateMutability": "view",
      "type": "function"
    },
    {
      "inputs": [
        {
          "internalType": "address",
          "name": "",
          "type": "address"
        },
        {
          "internalType": "address",
          "name": "token",
          "type": "address"
        },
        {
          "internalType": "uint256",
          "name": "amount",
          "type": "uint256"
        },
        {
          "internalType": "uint256",
          "name": "",
          "type": "uint256"
        },
        {
          "internalType": "bytes",
          "name": "",
          "type": "bytes"
        }
      ],
      "name": "onFlashLoan",
      "outputs": [
        {
          "internalType": "bytes32",
          "name": "",
          "type": "bytes32"
        }
      ],
      "stateMutability": "nonpayable",
      "type": "function"
    },
    {
      "inputs": [],
      "name": "owner",
      "outputs": [
        {
          "internalType": "address",
          "name": "",
          "type": "address"
        }
      ],
      "stateMutability": "view",
      "type": "function"
    },
    {
      "inputs": [],
      "name": "renounceOwnership",
      "outputs": [],
      "stateMutability": "nonpayable",
      "type": "function"
    },
    {
      "inputs": [
        {
          "internalType": "address",
          "name": "newOwner",
          "type": "address"
        }
      ],
      "name": "transferOwnership",
      "outputs": [],
      "stateMutability": "nonpayable",
      "type": "function"
    },
    {
      "inputs": [
        {
          "internalType": "address",
          "name": "_token",
          "type": "address"
        }
      ],
      "name": "withdrawTokens",
      "outputs": [],
      "stateMutability": "nonpayable",
      "type": "function"
    }
  ],
  "bytecode": "0x60a060405260001960045534801561001657600080fd5b50604051610e54380380610e54833981016040819052610035916100a3565b61003e33610053565b60601b6001600160601b0319166080526100d1565b600080546001600160a01b038381166001600160a01b0319831681178455604051919092169283917f8be0079c531659141344cd1fd0a4f28419497f9722a3daafe3b4186f6b6457e09190a35050565b6000602082840312156100b4578081fd5b81516001600160a01b03811681146100ca578182fd5b9392505050565b60805160601c610d5e6100f66000396000818161011501526106630152610d5e6000f3fe608060405234801561001057600080fd5b506004361061007d5760003560e01c80638da5cb5b1161005b5780638da5cb5b146100c55780638e845c30146100ea578063f2fde38b146100fd578063fdaff6811461011057600080fd5b806323e30c8b1461008257806349df728c146100a8578063715018a6146100bd575b600080fd5b610095610090366004610aa8565b610137565b6040519081526020015b60405180910390f35b6100bb6100b6366004610a0a565b61038a565b005b6100bb610537565b6000546001600160a01b03165b6040516001600160a01b03909116815260200161009f565b6100bb6100f8366004610a2b565b61056d565b6100bb61010b366004610a0a565b6106fd565b6100d27f000000000000000000000000000000000000000000000000000000000000000081565b6004805460405163095ea7b360e01b8152339281019290925260248201526000906001600160a01b0387169063095ea7b390604401602060405180830381600087803b15801561018657600080fd5b505af115801561019a573d6000803e3d6000fd5b505050506040513d601f19601f820116820180604052508101906101be9190610bc0565b506002546003546000916101df916001600160a01b03918216911688610798565b600354600254825192935060009261022d926001600160a01b039081169216908590600190811061022057634e487b7160e01b600052603260045260246000fd5b6020026020010151610798565b6002546040516370a0823160e01b81523060048201529192506000916001600160a01b03909116906370a082319060240160206040518083038186803b15801561027657600080fd5b505afa15801561028a573d6000803e3d6000fd5b505050506040513d601f19601f820116820180604052508101906102ae9190610be0565b9050878110156102f15760405162461bcd60e51b8152602060048201526009602482015268139bc81c1c9bd99a5d60ba1b60448201526064015b60405180910390fd5b7fb46e7a727b3c37df1f2f231cecdc22a8bc3c6d9b7fc639e343ae1a516ecf30d9888360018151811061033457634e487b7160e01b600052603260045260246000fd5b6020026020010151604051610353929190918252602082015260400190565b60405180910390a1507f439148f0bbc682ca079e46d6e2c2f0c1e3b820f1a291b069d8882abf8cf18dd99998505050505050505050565b6000546001600160a01b031633146103b45760405162461bcd60e51b81526004016102e890610c49565b6040516370a0823160e01b815230600482015281906000906001600160a01b038316906370a082319060240160206040518083038186803b1580156103f857600080fd5b505afa15801561040c573d6000803e3d6000fd5b505050506040513d601f19601f820116820180604052508101906104309190610be0565b90506000811161046f5760405162461bcd60e51b815260206004820152600a6024820152694e6f2062616c616e636560b01b60448201526064016102e8565b60405163a9059cbb60e01b8152336004820152602481018290526001600160a01b0383169063a9059cbb90604401602060405180830381600087803b1580156104b757600080fd5b505af11580156104cb573d6000803e3d6000fd5b505050506040513d601f19601f820116820180604052508101906104ef9190610bc0565b50604080516001600160a01b0385168152602081018390527f93740124b37b8f64043ddd706a499c11b58d2642466169e4c310f6b55ead67b6910160405180910390a1505050565b6000546001600160a01b031633146105615760405162461bcd60e51b81526004016102e890610c49565b61056b6000610957565b565b600084116105b55760405162461bcd60e51b8152602060048201526015602482015274125b9d985b1a5908189bdc9c9bddc8185b5bdd5b9d605a1b60448201526064016102e8565b6001600160a01b038616158015906105d557506001600160a01b03851615155b6106195760405162461bcd60e51b8152602060048201526015602482015274496e76616c696420746f6b656e206164647265737360581b60448201526064016102e8565b600280546001600160a01b038089166001600160a01b03199283161790925560038054888416908316179055600180548684169216919091179055604051632e7ff4ef60e11b81527f000000000000000000000000000000000000000000000000000000000000000090911690635cffe9de906106a29030908a90899088908890600401610bf8565b602060405180830381600087803b1580156106bc57600080fd5b505af11580156106d0573d6000803e3d6000fd5b505050506040513d601f19601f820116820180604052508101906106f49190610bc0565b50505050505050565b6000546001600160a01b031633146107275760405162461bcd60e51b81526004016102e890610c49565b6001600160a01b03811661078c5760405162461bcd60e51b815260206004820152602660248201527f4f776e61626c653a206e6577206f776e657220697320746865207a65726f206160448201526564647265737360d01b60648201526084016102e8565b61079581610957565b50565b60015460405163095ea7b360e01b81526001600160a01b0391821660048201526024810183905260609185169063095ea7b390604401602060405180830381600087803b1580156107e857600080fd5b505af11580156107fc573d6000803e3d6000fd5b505050506040513d601f19601f820116820180604052508101906108209190610bc0565b506040805160028082526060808301845292602083019080368337019050509050848160008151811061086357634e487b7160e01b600052603260045260246000fd5b60200260200101906001600160a01b031690816001600160a01b03168152505083816001815181106108a557634e487b7160e01b600052603260045260246000fd5b6001600160a01b039283166020918202929092010152600154600091166338ed1739858385306108d742610e10610cee565b6040518663ffffffff1660e01b81526004016108f7959493929190610c7e565b600060405180830381600087803b15801561091157600080fd5b505af1158015610925573d6000803e3d6000fd5b505050506040513d6000823e601f3d908101601f1916820160405261094d9190810190610b00565b9695505050505050565b600080546001600160a01b038381166001600160a01b0319831681178455604051919092169283917f8be0079c531659141344cd1fd0a4f28419497f9722a3daafe3b4186f6b6457e09190a35050565b80356001600160a01b03811681146109be57600080fd5b919050565b60008083601f8401126109d4578182fd5b50813567ffffffffffffffff8111156109eb578182fd5b602083019150836020828501011115610a0357600080fd5b9250929050565b600060208284031215610a1b578081fd5b610a24826109a7565b9392505050565b60008060008060008060a08789031215610a43578182fd5b610a4c876109a7565b9550610a5a602088016109a7565b945060408701359350610a6f606088016109a7565b9250608087013567ffffffffffffffff811115610a8a578283fd5b610a9689828a016109c3565b979a9699509497509295939492505050565b60008060008060008060a08789031215610ac0578182fd5b610ac9876109a7565b9550610ad7602088016109a7565b94506040870135935060608701359250608087013567ffffffffffffffff811115610a8a578283fd5b60006020808385031215610b12578182fd5b825167ffffffffffffffff80821115610b29578384fd5b818501915085601f830112610b3c578384fd5b815181811115610b4e57610b4e610d12565b8060051b604051601f19603f83011681018181108582111715610b7357610b73610d12565b604052828152858101935084860182860187018a1015610b91578788fd5b8795505b83861015610bb3578051855260019590950194938601938601610b95565b5098975050505050505050565b600060208284031215610bd1578081fd5b81518015158114610a24578182fd5b600060208284031215610bf1578081fd5b5051919050565b6001600160a01b038681168252851660208201526040810184905260806060820181905281018290526000828460a084013781830160a090810191909152601f909201601f19160101949350505050565b6020808252818101527f4f776e61626c653a2063616c6c6572206973206e6f7420746865206f776e6572604082015260600190565b600060a082018783526020878185015260a0604085015281875180845260c0860191508289019350845b81811015610ccd5784516001600160a01b031683529383019391830191600101610ca8565b50506001600160a01b03969096166060850152505050608001529392505050565b60008219821115610d0d57634e487b7160e01b81526011600452602481fd5b500190565b634e487b7160e01b600052604160045260246000fdfea2646970667358221220779997e372d235990cdcd86ca0796a979fc9dc3187c402d87383e0a41043de7064736f6c63430008040033",
  "linkReferences": {},
  "deployedLinkReferences": {}
}