{
  "_format": "hh-sol-artifact-1",
  "contractName": "Flashloanbot",
  "sourceName": "contracts/Flashloanbot.sol",
  "abi": [
    {
      "inputs": [
        {
          "internalType": "address",
          "name": "_vault",
          "type": "address"
        }
      ],
      "stateMutability": "nonpayable",
      "type": "constructor"
    },
    {
      "anonymous": false,
      "inputs": [
        {
          "indexed": true,
          "internalType": "address",
          "name": "previousOwner",
          "type": "address"
        },
        {
          "indexed": true,
          "internalType": "address",
          "name": "newOwner",
          "type": "address"
        }
      ],
      "name": "OwnershipTransferred",
      "type": "event"
    },
    {
      "anonymous": false,
      "inputs": [
        {
          "indexed": false,
          "internalType": "uint256",
          "name": "amountBefore",
          "type": "uint256"
        },
        {
          "indexed": false,
          "internalType": "uint256",
          "name": "amountAfter",
          "type": "uint256"
        }
      ],
      "name": "executeSuccess",
      "type": "event"
    },
    {
      "inputs": [
        {
          "internalType": "address",
          "name": "_borrowToken",
          "type": "address"
        },
        {
          "internalType": "address",
          "name": "_swapToken",
          "type": "address"
        },
        {
          "internalType": "uint256",
          "name": "_amount",
          "type": "uint256"
        },
        {
          "internalType": "address",
          "name": "_router",
          "type": "address"
        },
        {
          "internalType": "bytes",
          "name": "userData",
          "type": "bytes"
        }
      ],
      "name": "execute",
      "outputs": [],
      "stateMutability": "nonpayable",
      "type": "function"
    },
    {
      "inputs": [],
      "name": "owner",
      "outputs": [
        {
          "internalType": "address",
          "name": "",
          "type": "address"
        }
      ],
      "stateMutability": "view",
      "type": "function"
    },
    {
      "inputs": [
        {
          "internalType": "contract IERC20[]",
          "name": "",
          "type": "address[]"
        },
        {
          "internalType": "uint256[]",
          "name": "amounts",
          "type": "uint256[]"
        },
        {
          "internalType": "uint256[]",
          "name": "",
          "type": "uint256[]"
        },
        {
          "internalType": "bytes",
          "name": "",
          "type": "bytes"
        }
      ],
      "name": "receiveFlashLoan",
      "outputs": [],
      "stateMutability": "nonpayable",
      "type": "function"
    },
    {
      "inputs": [],
      "name": "renounceOwnership",
      "outputs": [],
      "stateMutability": "nonpayable",
      "type": "function"
    },
    {
      "inputs": [
        {
          "internalType": "address",
          "name": "newOwner",
          "type": "address"
        }
      ],
      "name": "transferOwnership",
      "outputs": [],
      "stateMutability": "nonpayable",
      "type": "function"
    },
    {
      "inputs": [],
      "name": "vault",
      "outputs": [
        {
          "internalType": "address",
          "name": "",
          "type": "address"
        }
      ],
      "stateMutability": "view",
      "type": "function"
    },
    {
      "inputs": [
        {
          "internalType": "address[]",
          "name": "_tokens",
          "type": "address[]"
        }
      ],
      "name": "withdrawTokens",
      "outputs": [],
      "stateMutability": "nonpayable",
      "type": "function"
    }
  ],
  "bytecode": "0x60a060405234801561001057600080fd5b5060405161119438038061119483398101604081905261002f9161009d565b6100383361004d565b60601b6001600160601b0319166080526100cb565b600080546001600160a01b038381166001600160a01b0319831681178455604051919092169283917f8be0079c531659141344cd1fd0a4f28419497f9722a3daafe3b4186f6b6457e09190a35050565b6000602082840312156100ae578081fd5b81516001600160a01b03811681146100c4578182fd5b9392505050565b60805160601c61109d6100f76000396000818161010601528181610493015261067e015261109d6000f3fe608060405234801561001057600080fd5b506004361061007d5760003560e01c80638e845c301161005b5780638e845c30146100c8578063f04f2707146100db578063f2fde38b146100ee578063fbfa77cf1461010157600080fd5b80635ecb16cd14610082578063715018a6146100975780638da5cb5b1461009f575b600080fd5b610095610090366004610ba3565b610128565b005b6100956102b1565b6000546001600160a01b03165b6040516001600160a01b03909116815260200160405180910390f35b6100956100d6366004610b26565b6102e7565b6100956100e9366004610c3f565b610509565b6100956100fc366004610b03565b61077f565b6100ac7f000000000000000000000000000000000000000000000000000000000000000081565b6000546001600160a01b0316331461015b5760405162461bcd60e51b815260040161015290610ef9565b60405180910390fd5b60005b81518110156102ad57600082828151811061018957634e487b7160e01b600052603260045260246000fd5b60209081029190910101516040516370a0823160e01b815230600482015290915081906000906001600160a01b038316906370a082319060240160206040518083038186803b1580156101db57600080fd5b505afa1580156101ef573d6000803e3d6000fd5b505050506040513d601f19601f820116820180604052508101906102139190610df0565b60405163a9059cbb60e01b8152336004820152602481018290529091506001600160a01b0383169063a9059cbb90604401602060405180830381600087803b15801561025e57600080fd5b505af1158015610272573d6000803e3d6000fd5b505050506040513d601f19601f820116820180604052508101906102969190610dd0565b5050505080806102a59061100b565b91505061015e565b5050565b6000546001600160a01b031633146102db5760405162461bcd60e51b815260040161015290610ef9565b6102e5600061081a565b565b6000831161032f5760405162461bcd60e51b8152602060048201526015602482015274125b9d985b1a5908189bdc9c9bddc8185b5bdd5b9d605a1b6044820152606401610152565b6001600160a01b0385161580159061034f57506001600160a01b03841615155b6103935760405162461bcd60e51b8152602060048201526015602482015274496e76616c696420746f6b656e206164647265737360581b6044820152606401610152565b600280546001600160a01b038781166001600160a01b0319928316179092556003805487841690831617905560018054928516929091169190911781556040805182815280820190915260609160208083019080368337019050509050858160008151811061041257634e487b7160e01b600052603260045260246000fd5b6001600160a01b039290921660209283029190910190910152604080516001808252818301909252606091816020016020820280368337019050509050848160008151811061047157634e487b7160e01b600052603260045260246000fd5b6020908102919091010152604051632e1c224f60e11b81526001600160a01b037f00000000000000000000000000000000000000000000000000000000000000001690635c38449e906104ce903090869086908990600401610e53565b600060405180830381600087803b1580156104e857600080fd5b505af11580156104fc573d6000803e3d6000fd5b5050505050505050505050565b60008360008151811061052c57634e487b7160e01b600052603260045260246000fd5b602090810291909101015160025460035491925060009161055a916001600160a01b0390811691168461086a565b60035460025482519293506000926105a5926001600160a01b039081169216908590859061059857634e487b7160e01b600052603260045260246000fd5b602002602001015161086a565b6002546040516370a0823160e01b81523060048201529192506000916001600160a01b03909116906370a082319060240160206040518083038186803b1580156105ee57600080fd5b505afa158015610602573d6000803e3d6000fd5b505050506040513d601f19601f820116820180604052508101906106269190610df0565b9050838110156106645760405162461bcd60e51b8152602060048201526009602482015268139bc81c1c9bd99a5d60ba1b6044820152606401610152565b60025460405163a9059cbb60e01b81526001600160a01b037f000000000000000000000000000000000000000000000000000000000000000081166004830152602482018790529091169063a9059cbb90604401602060405180830381600087803b1580156106d257600080fd5b505af11580156106e6573d6000803e3d6000fd5b505050506040513d601f19601f8201168201806040525081019061070a9190610dd0565b507fb46e7a727b3c37df1f2f231cecdc22a8bc3c6d9b7fc639e343ae1a516ecf30d9848360008151811061074e57634e487b7160e01b600052603260045260246000fd5b602002602001015160405161076d929190918252602082015260400190565b60405180910390a15050505050505050565b6000546001600160a01b031633146107a95760405162461bcd60e51b815260040161015290610ef9565b6001600160a01b03811661080e5760405162461bcd60e51b815260206004820152602660248201527f4f776e61626c653a206e6577206f776e657220697320746865207a65726f206160448201526564647265737360d01b6064820152608401610152565b6108178161081a565b50565b600080546001600160a01b038381166001600160a01b0319831681178455604051919092169283917f8be0079c531659141344cd1fd0a4f28419497f9722a3daafe3b4186f6b6457e09190a35050565b60015460405163095ea7b360e01b81526001600160a01b0391821660048201526024810183905260609185169063095ea7b390604401602060405180830381600087803b1580156108ba57600080fd5b505af11580156108ce573d6000803e3d6000fd5b505050506040513d601f19601f820116820180604052508101906108f29190610dd0565b506040805160028082526060808301845292602083019080368337019050509050848160008151811061093557634e487b7160e01b600052603260045260246000fd5b60200260200101906001600160a01b031690816001600160a01b031681525050838160018151811061097757634e487b7160e01b600052603260045260246000fd5b6001600160a01b039283166020918202929092010152600154600091166338ed1739858385306109a942610e10610ff3565b6040518663ffffffff1660e01b81526004016109c9959493929190610f2e565b600060405180830381600087803b1580156109e357600080fd5b505af11580156109f7573d6000803e3d6000fd5b505050506040513d6000823e601f3d908101601f19168201604052610a1f9190810190610d49565b9695505050505050565b600082601f830112610a39578081fd5b81356020610a4e610a4983610fcf565b610f9e565b80838252828201915082860187848660051b8901011115610a6d578586fd5b855b85811015610a8b57813584529284019290840190600101610a6f565b5090979650505050505050565b600082601f830112610aa8578081fd5b813567ffffffffffffffff811115610ac257610ac261103c565b610ad5601f8201601f1916602001610f9e565b818152846020838601011115610ae9578283fd5b816020850160208301379081016020019190915292915050565b600060208284031215610b14578081fd5b8135610b1f81611052565b9392505050565b600080600080600060a08688031215610b3d578081fd5b8535610b4881611052565b94506020860135610b5881611052565b9350604086013592506060860135610b6f81611052565b9150608086013567ffffffffffffffff811115610b8a578182fd5b610b9688828901610a98565b9150509295509295909350565b60006020808385031215610bb5578182fd5b823567ffffffffffffffff811115610bcb578283fd5b8301601f81018513610bdb578283fd5b8035610be9610a4982610fcf565b80828252848201915084840188868560051b8701011115610c08578687fd5b8694505b83851015610c33578035610c1f81611052565b835260019490940193918501918501610c0c565b50979650505050505050565b60008060008060808587031215610c54578384fd5b843567ffffffffffffffff80821115610c6b578586fd5b818701915087601f830112610c7e578586fd5b81356020610c8e610a4983610fcf565b8083825282820191508286018c848660051b8901011115610cad578a8bfd5b8a96505b84871015610cd8578035610cc481611052565b835260019690960195918301918301610cb1565b5098505088013592505080821115610cee578485fd5b610cfa88838901610a29565b94506040870135915080821115610d0f578384fd5b610d1b88838901610a29565b93506060870135915080821115610d30578283fd5b50610d3d87828801610a98565b91505092959194509250565b60006020808385031215610d5b578182fd5b825167ffffffffffffffff811115610d71578283fd5b8301601f81018513610d81578283fd5b8051610d8f610a4982610fcf565b80828252848201915084840188868560051b8701011115610dae578687fd5b8694505b83851015610c33578051835260019490940193918501918501610db2565b600060208284031215610de1578081fd5b81518015158114610b1f578182fd5b600060208284031215610e01578081fd5b5051919050565b60008151808452815b81811015610e2d57602081850181015186830182015201610e11565b81811115610e3e5782602083870101525b50601f01601f19169290920160200192915050565b6001600160a01b0385811682526080602080840182905286519184018290526000928782019290919060a0860190855b81811015610ea1578551851683529483019491830191600101610e83565b50508581036040870152875180825290820193509150808701845b83811015610ed857815185529382019390820190600101610ebc565b505050508281036060840152610eee8185610e08565b979650505050505050565b6020808252818101527f4f776e61626c653a2063616c6c6572206973206e6f7420746865206f776e6572604082015260600190565b600060a082018783526020878185015260a0604085015281875180845260c0860191508289019350845b81811015610f7d5784516001600160a01b031683529383019391830191600101610f58565b50506001600160a01b03969096166060850152505050608001529392505050565b604051601f8201601f1916810167ffffffffffffffff81118282101715610fc757610fc761103c565b604052919050565b600067ffffffffffffffff821115610fe957610fe961103c565b5060051b60200190565b6000821982111561100657611006611026565b500190565b600060001982141561101f5761101f611026565b5060010190565b634e487b7160e01b600052601160045260246000fd5b634e487b7160e01b600052604160045260246000fd5b6001600160a01b038116811461081757600080fdfea2646970667358221220dd6c7f5551931c1fc9a9df7c087ac5ff9b3a55cfe22ec4efad7b52f3417bf56964736f6c63430008040033",
  "linkReferences": {},
  "deployedLinkReferences": {}
}